{
	"data": {
		"bytecode": {
			"linkReferences": {},
			"object": "6080604052348015600e575f5ffd5b5061084f8061001c5f395ff3fe608060405234801561000f575f5ffd5b5060043610610055575f3560e01c80635e9ad6b4146100595780639553de4e146100775780639731d42014610095578063a918b856146100b1578063b508ba31146100cf575b5f5ffd5b6100616100ed565b60405161006e919061027b565b60405180910390f35b61007f6100ff565b60405161008c9190610304565b60405180910390f35b6100af60048036038101906100aa9190610494565b61018b565b005b6100b96101d0565b6040516100c6919061052b565b60405180910390f35b6100d76101d6565b6040516100e49190610304565b60405180910390f35b60035f9054906101000a900460ff1681565b6002805461010c90610571565b80601f016020809104026020016040519081016040528092919081815260200182805461013890610571565b80156101835780601f1061015a57610100808354040283529160200191610183565b820191905f5260205f20905b81548152906001019060200180831161016657829003601f168201915b505050505081565b825f9081610199919061074a565b508160018190555080600290816101b0919061074a565b50600160035f6101000a81548160ff021916908315150217905550505050565b60015481565b5f80546101e290610571565b80601f016020809104026020016040519081016040528092919081815260200182805461020e90610571565b80156102595780601f1061023057610100808354040283529160200191610259565b820191905f5260205f20905b81548152906001019060200180831161023c57829003601f168201915b505050505081565b5f8115159050919050565b61027581610261565b82525050565b5f60208201905061028e5f83018461026c565b92915050565b5f81519050919050565b5f82825260208201905092915050565b8281835e5f83830152505050565b5f601f19601f8301169050919050565b5f6102d682610294565b6102e0818561029e565b93506102f08185602086016102ae565b6102f9816102bc565b840191505092915050565b5f6020820190508181035f83015261031c81846102cc565b905092915050565b5f604051905090565b5f5ffd5b5f5ffd5b5f5ffd5b5f5ffd5b7f4e487b71000000000000000000000000000000000000000000000000000000005f52604160045260245ffd5b610373826102bc565b810181811067ffffffffffffffff821117156103925761039161033d565b5b80604052505050565b5f6103a4610324565b90506103b0828261036a565b919050565b5f67ffffffffffffffff8211156103cf576103ce61033d565b5b6103d8826102bc565b9050602081019050919050565b828183375f83830152505050565b5f610405610400846103b5565b61039b565b90508281526020810184848401111561042157610420610339565b5b61042c8482856103e5565b509392505050565b5f82601f83011261044857610447610335565b5b81356104588482602086016103f3565b91505092915050565b5f819050919050565b61047381610461565b811461047d575f5ffd5b50565b5f8135905061048e8161046a565b92915050565b5f5f5f606084860312156104ab576104aa61032d565b5b5f84013567ffffffffffffffff8111156104c8576104c7610331565b5b6104d486828701610434565b93505060206104e586828701610480565b925050604084013567ffffffffffffffff81111561050657610505610331565b5b61051286828701610434565b9150509250925092565b61052581610461565b82525050565b5f60208201905061053e5f83018461051c565b92915050565b7f4e487b71000000000000000000000000000000000000000000000000000000005f52602260045260245ffd5b5f600282049050600182168061058857607f821691505b60208210810361059b5761059a610544565b5b50919050565b5f819050815f5260205f209050919050565b5f6020601f8301049050919050565b5f82821b905092915050565b5f600883026105fd7fffffffffffffffffffffffffffffffffffffffffffffffffffffffffffffffff826105c2565b61060786836105c2565b95508019841693508086168417925050509392505050565b5f819050919050565b5f819050919050565b5f61064b6106466106418461061f565b610628565b61061f565b9050919050565b5f819050919050565b61066483610631565b61067861067082610652565b8484546105ce565b825550505050565b5f5f905090565b61068f610680565b61069a81848461065b565b505050565b5b818110156106bd576106b25f82610687565b6001810190506106a0565b5050565b601f821115610702576106d3816105a1565b6106dc846105b3565b810160208510156106eb578190505b6106ff6106f7856105b3565b83018261069f565b50505b505050565b5f82821c905092915050565b5f6107225f1984600802610707565b1980831691505092915050565b5f61073a8383610713565b9150826002028217905092915050565b61075382610294565b67ffffffffffffffff81111561076c5761076b61033d565b5b6107768254610571565b6107818282856106c1565b5f60209050601f8311600181146107b2575f84156107a0578287015190505b6107aa858261072f565b865550610811565b601f1984166107c0866105a1565b5f5b828110156107e7578489015182556001820191506020850194506020810190506107c2565b868310156108045784890151610800601f891682610713565b8355505b6001600288020188555050505b50505050505056fea2646970667358221220e6bcf564c3982a01a82c9a21c3626be77913bd252f56950b9d469ded86dbd8c764736f6c634300081e0033",
			"opcodes": "PUSH1 0x80 PUSH1 0x40 MSTORE CALLVALUE DUP1 ISZERO PUSH1 0xE JUMPI PUSH0 PUSH0 REVERT JUMPDEST POP PUSH2 0x84F DUP1 PUSH2 0x1C PUSH0 CODECOPY PUSH0 RETURN INVALID PUSH1 0x80 PUSH1 0x40 MSTORE CALLVALUE DUP1 ISZERO PUSH2 0xF JUMPI PUSH0 PUSH0 REVERT JUMPDEST POP PUSH1 0x4 CALLDATASIZE LT PUSH2 0x55 JUMPI PUSH0 CALLDATALOAD PUSH1 0xE0 SHR DUP1 PUSH4 0x5E9AD6B4 EQ PUSH2 0x59 JUMPI DUP1 PUSH4 0x9553DE4E EQ PUSH2 0x77 JUMPI DUP1 PUSH4 0x9731D420 EQ PUSH2 0x95 JUMPI DUP1 PUSH4 0xA918B856 EQ PUSH2 0xB1 JUMPI DUP1 PUSH4 0xB508BA31 EQ PUSH2 0xCF JUMPI JUMPDEST PUSH0 PUSH0 REVERT JUMPDEST PUSH2 0x61 PUSH2 0xED JUMP JUMPDEST PUSH1 0x40 MLOAD PUSH2 0x6E SWAP2 SWAP1 PUSH2 0x27B JUMP JUMPDEST PUSH1 0x40 MLOAD DUP1 SWAP2 SUB SWAP1 RETURN JUMPDEST PUSH2 0x7F PUSH2 0xFF JUMP JUMPDEST PUSH1 0x40 MLOAD PUSH2 0x8C SWAP2 SWAP1 PUSH2 0x304 JUMP JUMPDEST PUSH1 0x40 MLOAD DUP1 SWAP2 SUB SWAP1 RETURN JUMPDEST PUSH2 0xAF PUSH1 0x4 DUP1 CALLDATASIZE SUB DUP2 ADD SWAP1 PUSH2 0xAA SWAP2 SWAP1 PUSH2 0x494 JUMP JUMPDEST PUSH2 0x18B JUMP JUMPDEST STOP JUMPDEST PUSH2 0xB9 PUSH2 0x1D0 JUMP JUMPDEST PUSH1 0x40 MLOAD PUSH2 0xC6 SWAP2 SWAP1 PUSH2 0x52B JUMP JUMPDEST PUSH1 0x40 MLOAD DUP1 SWAP2 SUB SWAP1 RETURN JUMPDEST PUSH2 0xD7 PUSH2 0x1D6 JUMP JUMPDEST PUSH1 0x40 MLOAD PUSH2 0xE4 SWAP2 SWAP1 PUSH2 0x304 JUMP JUMPDEST PUSH1 0x40 MLOAD DUP1 SWAP2 SUB SWAP1 RETURN JUMPDEST PUSH1 0x3 PUSH0 SWAP1 SLOAD SWAP1 PUSH2 0x100 EXP SWAP1 DIV PUSH1 0xFF AND DUP2 JUMP JUMPDEST PUSH1 0x2 DUP1 SLOAD PUSH2 0x10C SWAP1 PUSH2 0x571 JUMP JUMPDEST DUP1 PUSH1 0x1F ADD PUSH1 0x20 DUP1 SWAP2 DIV MUL PUSH1 0x20 ADD PUSH1 0x40 MLOAD SWAP1 DUP2 ADD PUSH1 0x40 MSTORE DUP1 SWAP3 SWAP2 SWAP1 DUP2 DUP2 MSTORE PUSH1 0x20 ADD DUP3 DUP1 SLOAD PUSH2 0x138 SWAP1 PUSH2 0x571 JUMP JUMPDEST DUP1 ISZERO PUSH2 0x183 JUMPI DUP1 PUSH1 0x1F LT PUSH2 0x15A JUMPI PUSH2 0x100 DUP1 DUP4 SLOAD DIV MUL DUP4 MSTORE SWAP2 PUSH1 0x20 ADD SWAP2 PUSH2 0x183 JUMP JUMPDEST DUP3 ADD SWAP2 SWAP1 PUSH0 MSTORE PUSH1 0x20 PUSH0 KECCAK256 SWAP1 JUMPDEST DUP2 SLOAD DUP2 MSTORE SWAP1 PUSH1 0x1 ADD SWAP1 PUSH1 0x20 ADD DUP1 DUP4 GT PUSH2 0x166 JUMPI DUP3 SWAP1 SUB PUSH1 0x1F AND DUP3 ADD SWAP2 JUMPDEST POP POP POP POP POP DUP2 JUMP JUMPDEST DUP3 PUSH0 SWAP1 DUP2 PUSH2 0x199 SWAP2 SWAP1 PUSH2 0x74A JUMP JUMPDEST POP DUP2 PUSH1 0x1 DUP2 SWAP1 SSTORE POP DUP1 PUSH1 0x2 SWAP1 DUP2 PUSH2 0x1B0 SWAP2 SWAP1 PUSH2 0x74A JUMP JUMPDEST POP PUSH1 0x1 PUSH1 0x3 PUSH0 PUSH2 0x100 EXP DUP2 SLOAD DUP2 PUSH1 0xFF MUL NOT AND SWAP1 DUP4 ISZERO ISZERO MUL OR SWAP1 SSTORE POP POP POP POP JUMP JUMPDEST PUSH1 0x1 SLOAD DUP2 JUMP JUMPDEST PUSH0 DUP1 SLOAD PUSH2 0x1E2 SWAP1 PUSH2 0x571 JUMP JUMPDEST DUP1 PUSH1 0x1F ADD PUSH1 0x20 DUP1 SWAP2 DIV MUL PUSH1 0x20 ADD PUSH1 0x40 MLOAD SWAP1 DUP2 ADD PUSH1 0x40 MSTORE DUP1 SWAP3 SWAP2 SWAP1 DUP2 DUP2 MSTORE PUSH1 0x20 ADD DUP3 DUP1 SLOAD PUSH2 0x20E SWAP1 PUSH2 0x571 JUMP JUMPDEST DUP1 ISZERO PUSH2 0x259 JUMPI DUP1 PUSH1 0x1F LT PUSH2 0x230 JUMPI PUSH2 0x100 DUP1 DUP4 SLOAD DIV MUL DUP4 MSTORE SWAP2 PUSH1 0x20 ADD SWAP2 PUSH2 0x259 JUMP JUMPDEST DUP3 ADD SWAP2 SWAP1 PUSH0 MSTORE PUSH1 0x20 PUSH0 KECCAK256 SWAP1 JUMPDEST DUP2 SLOAD DUP2 MSTORE SWAP1 PUSH1 0x1 ADD SWAP1 PUSH1 0x20 ADD DUP1 DUP4 GT PUSH2 0x23C JUMPI DUP3 SWAP1 SUB PUSH1 0x1F AND DUP3 ADD SWAP2 JUMPDEST POP POP POP POP POP DUP2 JUMP JUMPDEST PUSH0 DUP2 ISZERO ISZERO SWAP1 POP SWAP2 SWAP1 POP JUMP JUMPDEST PUSH2 0x275 DUP2 PUSH2 0x261 JUMP JUMPDEST DUP3 MSTORE POP POP JUMP JUMPDEST PUSH0 PUSH1 0x20 DUP3 ADD SWAP1 POP PUSH2 0x28E PUSH0 DUP4 ADD DUP5 PUSH2 0x26C JUMP JUMPDEST SWAP3 SWAP2 POP POP JUMP JUMPDEST PUSH0 DUP2 MLOAD SWAP1 POP SWAP2 SWAP1 POP JUMP JUMPDEST PUSH0 DUP3 DUP3 MSTORE PUSH1 0x20 DUP3 ADD SWAP1 POP SWAP3 SWAP2 POP POP JUMP JUMPDEST DUP3 DUP2 DUP4 MCOPY PUSH0 DUP4 DUP4 ADD MSTORE POP POP POP JUMP JUMPDEST PUSH0 PUSH1 0x1F NOT PUSH1 0x1F DUP4 ADD AND SWAP1 POP SWAP2 SWAP1 POP JUMP JUMPDEST PUSH0 PUSH2 0x2D6 DUP3 PUSH2 0x294 JUMP JUMPDEST PUSH2 0x2E0 DUP2 DUP6 PUSH2 0x29E JUMP JUMPDEST SWAP4 POP PUSH2 0x2F0 DUP2 DUP6 PUSH1 0x20 DUP7 ADD PUSH2 0x2AE JUMP JUMPDEST PUSH2 0x2F9 DUP2 PUSH2 0x2BC JUMP JUMPDEST DUP5 ADD SWAP2 POP POP SWAP3 SWAP2 POP POP JUMP JUMPDEST PUSH0 PUSH1 0x20 DUP3 ADD SWAP1 POP DUP2 DUP2 SUB PUSH0 DUP4 ADD MSTORE PUSH2 0x31C DUP2 DUP5 PUSH2 0x2CC JUMP JUMPDEST SWAP1 POP SWAP3 SWAP2 POP POP JUMP JUMPDEST PUSH0 PUSH1 0x40 MLOAD SWAP1 POP SWAP1 JUMP JUMPDEST PUSH0 PUSH0 REVERT JUMPDEST PUSH0 PUSH0 REVERT JUMPDEST PUSH0 PUSH0 REVERT JUMPDEST PUSH0 PUSH0 REVERT JUMPDEST PUSH32 0x4E487B7100000000000000000000000000000000000000000000000000000000 PUSH0 MSTORE PUSH1 0x41 PUSH1 0x4 MSTORE PUSH1 0x24 PUSH0 REVERT JUMPDEST PUSH2 0x373 DUP3 PUSH2 0x2BC JUMP JUMPDEST DUP2 ADD DUP2 DUP2 LT PUSH8 0xFFFFFFFFFFFFFFFF DUP3 GT OR ISZERO PUSH2 0x392 JUMPI PUSH2 0x391 PUSH2 0x33D JUMP JUMPDEST JUMPDEST DUP1 PUSH1 0x40 MSTORE POP POP POP JUMP JUMPDEST PUSH0 PUSH2 0x3A4 PUSH2 0x324 JUMP JUMPDEST SWAP1 POP PUSH2 0x3B0 DUP3 DUP3 PUSH2 0x36A JUMP JUMPDEST SWAP2 SWAP1 POP JUMP JUMPDEST PUSH0 PUSH8 0xFFFFFFFFFFFFFFFF DUP3 GT ISZERO PUSH2 0x3CF JUMPI PUSH2 0x3CE PUSH2 0x33D JUMP JUMPDEST JUMPDEST PUSH2 0x3D8 DUP3 PUSH2 0x2BC JUMP JUMPDEST SWAP1 POP PUSH1 0x20 DUP2 ADD SWAP1 POP SWAP2 SWAP1 POP JUMP JUMPDEST DUP3 DUP2 DUP4 CALLDATACOPY PUSH0 DUP4 DUP4 ADD MSTORE POP POP POP JUMP JUMPDEST PUSH0 PUSH2 0x405 PUSH2 0x400 DUP5 PUSH2 0x3B5 JUMP JUMPDEST PUSH2 0x39B JUMP JUMPDEST SWAP1 POP DUP3 DUP2 MSTORE PUSH1 0x20 DUP2 ADD DUP5 DUP5 DUP5 ADD GT ISZERO PUSH2 0x421 JUMPI PUSH2 0x420 PUSH2 0x339 JUMP JUMPDEST JUMPDEST PUSH2 0x42C DUP5 DUP3 DUP6 PUSH2 0x3E5 JUMP JUMPDEST POP SWAP4 SWAP3 POP POP POP JUMP JUMPDEST PUSH0 DUP3 PUSH1 0x1F DUP4 ADD SLT PUSH2 0x448 JUMPI PUSH2 0x447 PUSH2 0x335 JUMP JUMPDEST JUMPDEST DUP2 CALLDATALOAD PUSH2 0x458 DUP5 DUP3 PUSH1 0x20 DUP7 ADD PUSH2 0x3F3 JUMP JUMPDEST SWAP2 POP POP SWAP3 SWAP2 POP POP JUMP JUMPDEST PUSH0 DUP2 SWAP1 POP SWAP2 SWAP1 POP JUMP JUMPDEST PUSH2 0x473 DUP2 PUSH2 0x461 JUMP JUMPDEST DUP2 EQ PUSH2 0x47D JUMPI PUSH0 PUSH0 REVERT JUMPDEST POP JUMP JUMPDEST PUSH0 DUP2 CALLDATALOAD SWAP1 POP PUSH2 0x48E DUP2 PUSH2 0x46A JUMP JUMPDEST SWAP3 SWAP2 POP POP JUMP JUMPDEST PUSH0 PUSH0 PUSH0 PUSH1 0x60 DUP5 DUP7 SUB SLT ISZERO PUSH2 0x4AB JUMPI PUSH2 0x4AA PUSH2 0x32D JUMP JUMPDEST JUMPDEST PUSH0 DUP5 ADD CALLDATALOAD PUSH8 0xFFFFFFFFFFFFFFFF DUP2 GT ISZERO PUSH2 0x4C8 JUMPI PUSH2 0x4C7 PUSH2 0x331 JUMP JUMPDEST JUMPDEST PUSH2 0x4D4 DUP7 DUP3 DUP8 ADD PUSH2 0x434 JUMP JUMPDEST SWAP4 POP POP PUSH1 0x20 PUSH2 0x4E5 DUP7 DUP3 DUP8 ADD PUSH2 0x480 JUMP JUMPDEST SWAP3 POP POP PUSH1 0x40 DUP5 ADD CALLDATALOAD PUSH8 0xFFFFFFFFFFFFFFFF DUP2 GT ISZERO PUSH2 0x506 JUMPI PUSH2 0x505 PUSH2 0x331 JUMP JUMPDEST JUMPDEST PUSH2 0x512 DUP7 DUP3 DUP8 ADD PUSH2 0x434 JUMP JUMPDEST SWAP2 POP POP SWAP3 POP SWAP3 POP SWAP3 JUMP JUMPDEST PUSH2 0x525 DUP2 PUSH2 0x461 JUMP JUMPDEST DUP3 MSTORE POP POP JUMP JUMPDEST PUSH0 PUSH1 0x20 DUP3 ADD SWAP1 POP PUSH2 0x53E PUSH0 DUP4 ADD DUP5 PUSH2 0x51C JUMP JUMPDEST SWAP3 SWAP2 POP POP JUMP JUMPDEST PUSH32 0x4E487B7100000000000000000000000000000000000000000000000000000000 PUSH0 MSTORE PUSH1 0x22 PUSH1 0x4 MSTORE PUSH1 0x24 PUSH0 REVERT JUMPDEST PUSH0 PUSH1 0x2 DUP3 DIV SWAP1 POP PUSH1 0x1 DUP3 AND DUP1 PUSH2 0x588 JUMPI PUSH1 0x7F DUP3 AND SWAP2 POP JUMPDEST PUSH1 0x20 DUP3 LT DUP2 SUB PUSH2 0x59B JUMPI PUSH2 0x59A PUSH2 0x544 JUMP JUMPDEST JUMPDEST POP SWAP2 SWAP1 POP JUMP JUMPDEST PUSH0 DUP2 SWAP1 POP DUP2 PUSH0 MSTORE PUSH1 0x20 PUSH0 KECCAK256 SWAP1 POP SWAP2 SWAP1 POP JUMP JUMPDEST PUSH0 PUSH1 0x20 PUSH1 0x1F DUP4 ADD DIV SWAP1 POP SWAP2 SWAP1 POP JUMP JUMPDEST PUSH0 DUP3 DUP3 SHL SWAP1 POP SWAP3 SWAP2 POP POP JUMP JUMPDEST PUSH0 PUSH1 0x8 DUP4 MUL PUSH2 0x5FD PUSH32 0xFFFFFFFFFFFFFFFFFFFFFFFFFFFFFFFFFFFFFFFFFFFFFFFFFFFFFFFFFFFFFFFF DUP3 PUSH2 0x5C2 JUMP JUMPDEST PUSH2 0x607 DUP7 DUP4 PUSH2 0x5C2 JUMP JUMPDEST SWAP6 POP DUP1 NOT DUP5 AND SWAP4 POP DUP1 DUP7 AND DUP5 OR SWAP3 POP POP POP SWAP4 SWAP3 POP POP POP JUMP JUMPDEST PUSH0 DUP2 SWAP1 POP SWAP2 SWAP1 POP JUMP JUMPDEST PUSH0 DUP2 SWAP1 POP SWAP2 SWAP1 POP JUMP JUMPDEST PUSH0 PUSH2 0x64B PUSH2 0x646 PUSH2 0x641 DUP5 PUSH2 0x61F JUMP JUMPDEST PUSH2 0x628 JUMP JUMPDEST PUSH2 0x61F JUMP JUMPDEST SWAP1 POP SWAP2 SWAP1 POP JUMP JUMPDEST PUSH0 DUP2 SWAP1 POP SWAP2 SWAP1 POP JUMP JUMPDEST PUSH2 0x664 DUP4 PUSH2 0x631 JUMP JUMPDEST PUSH2 0x678 PUSH2 0x670 DUP3 PUSH2 0x652 JUMP JUMPDEST DUP5 DUP5 SLOAD PUSH2 0x5CE JUMP JUMPDEST DUP3 SSTORE POP POP POP POP JUMP JUMPDEST PUSH0 PUSH0 SWAP1 POP SWAP1 JUMP JUMPDEST PUSH2 0x68F PUSH2 0x680 JUMP JUMPDEST PUSH2 0x69A DUP2 DUP5 DUP5 PUSH2 0x65B JUMP JUMPDEST POP POP POP JUMP JUMPDEST JUMPDEST DUP2 DUP2 LT ISZERO PUSH2 0x6BD JUMPI PUSH2 0x6B2 PUSH0 DUP3 PUSH2 0x687 JUMP JUMPDEST PUSH1 0x1 DUP2 ADD SWAP1 POP PUSH2 0x6A0 JUMP JUMPDEST POP POP JUMP JUMPDEST PUSH1 0x1F DUP3 GT ISZERO PUSH2 0x702 JUMPI PUSH2 0x6D3 DUP2 PUSH2 0x5A1 JUMP JUMPDEST PUSH2 0x6DC DUP5 PUSH2 0x5B3 JUMP JUMPDEST DUP2 ADD PUSH1 0x20 DUP6 LT ISZERO PUSH2 0x6EB JUMPI DUP2 SWAP1 POP JUMPDEST PUSH2 0x6FF PUSH2 0x6F7 DUP6 PUSH2 0x5B3 JUMP JUMPDEST DUP4 ADD DUP3 PUSH2 0x69F JUMP JUMPDEST POP POP JUMPDEST POP POP POP JUMP JUMPDEST PUSH0 DUP3 DUP3 SHR SWAP1 POP SWAP3 SWAP2 POP POP JUMP JUMPDEST PUSH0 PUSH2 0x722 PUSH0 NOT DUP5 PUSH1 0x8 MUL PUSH2 0x707 JUMP JUMPDEST NOT DUP1 DUP4 AND SWAP2 POP POP SWAP3 SWAP2 POP POP JUMP JUMPDEST PUSH0 PUSH2 0x73A DUP4 DUP4 PUSH2 0x713 JUMP JUMPDEST SWAP2 POP DUP3 PUSH1 0x2 MUL DUP3 OR SWAP1 POP SWAP3 SWAP2 POP POP JUMP JUMPDEST PUSH2 0x753 DUP3 PUSH2 0x294 JUMP JUMPDEST PUSH8 0xFFFFFFFFFFFFFFFF DUP2 GT ISZERO PUSH2 0x76C JUMPI PUSH2 0x76B PUSH2 0x33D JUMP JUMPDEST JUMPDEST PUSH2 0x776 DUP3 SLOAD PUSH2 0x571 JUMP JUMPDEST PUSH2 0x781 DUP3 DUP3 DUP6 PUSH2 0x6C1 JUMP JUMPDEST PUSH0 PUSH1 0x20 SWAP1 POP PUSH1 0x1F DUP4 GT PUSH1 0x1 DUP2 EQ PUSH2 0x7B2 JUMPI PUSH0 DUP5 ISZERO PUSH2 0x7A0 JUMPI DUP3 DUP8 ADD MLOAD SWAP1 POP JUMPDEST PUSH2 0x7AA DUP6 DUP3 PUSH2 0x72F JUMP JUMPDEST DUP7 SSTORE POP PUSH2 0x811 JUMP JUMPDEST PUSH1 0x1F NOT DUP5 AND PUSH2 0x7C0 DUP7 PUSH2 0x5A1 JUMP JUMPDEST PUSH0 JUMPDEST DUP3 DUP2 LT ISZERO PUSH2 0x7E7 JUMPI DUP5 DUP10 ADD MLOAD DUP3 SSTORE PUSH1 0x1 DUP3 ADD SWAP2 POP PUSH1 0x20 DUP6 ADD SWAP5 POP PUSH1 0x20 DUP2 ADD SWAP1 POP PUSH2 0x7C2 JUMP JUMPDEST DUP7 DUP4 LT ISZERO PUSH2 0x804 JUMPI DUP5 DUP10 ADD MLOAD PUSH2 0x800 PUSH1 0x1F DUP10 AND DUP3 PUSH2 0x713 JUMP JUMPDEST DUP4 SSTORE POP JUMPDEST PUSH1 0x1 PUSH1 0x2 DUP9 MUL ADD DUP9 SSTORE POP POP POP JUMPDEST POP POP POP POP POP POP JUMP INVALID LOG2 PUSH5 0x6970667358 0x22 SLT KECCAK256 DUPN 0xBC CREATE2 PUSH5 0xC3982A01A8 0x2C SWAP11 0x21 0xC3 PUSH3 0x6BE779 SGT 0xBD 0x25 0x2F JUMP SWAP6 SIGNEXTEND SWAP14 CHAINID SWAP14 0xED DUP7 0xDB 0xD8 0xC7 PUSH5 0x736F6C6343 STOP ADDMOD 0x1E STOP CALLER "
		},
		"gasEstimates": {
			"creation": {
				"codeDepositCost": "425400",
				"executionCost": "459",
				"totalCost": "425859"
			},
			"external": {
				"courseName()": "infinite",
				"isEnrolled()": "2444",
				"setProfile(string,int256,string)": "infinite",
				"studentAge()": "2469",
				"studentName()": "infinite"
			}
		},
		"methodIdentifiers": {
			"courseName()": "9553de4e",
			"isEnrolled()": "5e9ad6b4",
			"setProfile(string,int256,string)": "9731d420",
			"studentAge()": "a918b856",
			"studentName()": "b508ba31"
		}
	},
	"abi": [
		{
			"inputs": [],
			"name": "courseName",
			"outputs": [
				{
					"internalType": "string",
					"name": "",
					"type": "string"
				}
			],
			"stateMutability": "view",
			"type": "function"
		},
		{
			"inputs": [],
			"name": "isEnrolled",
			"outputs": [
				{
					"internalType": "bool",
					"name": "",
					"type": "bool"
				}
			],
			"stateMutability": "view",
			"type": "function"
		},
		{
			"inputs": [
				{
					"internalType": "string",
					"name": "name",
					"type": "string"
				},
				{
					"internalType": "int256",
					"name": "age",
					"type": "int256"
				},
				{
					"internalType": "string",
					"name": "course",
					"type": "string"
				}
			],
			"name": "setProfile",
			"outputs": [],
			"stateMutability": "nonpayable",
			"type": "function"
		},
		{
			"inputs": [],
			"name": "studentAge",
			"outputs": [
				{
					"internalType": "int256",
					"name": "",
					"type": "int256"
				}
			],
			"stateMutability": "view",
			"type": "function"
		},
		{
			"inputs": [],
			"name": "studentName",
			"outputs": [
				{
					"internalType": "string",
					"name": "",
					"type": "string"
				}
			],
			"stateMutability": "view",
			"type": "function"
		}
	]
}